:020000040000FA
:1000000080310E28080008007E1480314E01161A37
:100010000C1E0C288E3146267E1009008231FB2AE8
:10002000302080310030A001A1009030A200FF30CC
:10003000A301A4000030A501A601082280310F30E1
:100040004001B400FF30B501B6000F30A4201E30CF
:100050004001B600FF30B701B80000308E31682E85
:100060000330420196000430DC228031BB22803113
:1000700070084001A0007108A1007208A2000630BB
:10008000A236A10CA00C890B40282008A30021084F
:10009000A4002208A500A6012608AA002508A90098
:1000A0002408A8002308A700502680317F20803133
:1000B0003A268031C92180319B268031D70029081A
:1000C000D6002808D5002708D400FC302305A70057
:1000D0002408A8002508A9002608AA005026803177
:1000E0007F2080313A268031C92180319B26DB0078
:1000F0002908DA002808D9002708D8000800F801E4
:10010000F901FA01FB01701C8D287408F8077508C5
:10011000F93D7608FA3D7708FB3DF435F50DF60D0F
:10012000F70DF336F20CF10CF00C73087204710445
:100130007004031D83287B08F3007A08F200790815
:10014000F1007808F0000800C7005708CB005608F7
:10015000CA005508C9005408C8000A30A0000F3072
:10016000C62680314230F1004030F0003126803127
:10017000C921803128268031932180312008303EEA
:10018000B7000A30A0000130C62680318630F10069
:10019000A030F00031268031C921803128268031FD
:1001A000932180312008303EB8000A30A00027306B
:1001B000BF2680311030F00031268031C9218031D6
:1001C00028268031932180312008303EB9000A3042
:1001D000A0000330BF268031E830F00031268031A6
:1001E000C921803128268031932180312008303E7A
:1001F000BA000A30A0006430662680313126803192
:10020000C921803128268031932180312008303E59
:10021000BB000A30A0006626803131268031C9211A
:10022000803128268031932180312008303EBC0067
:100230000A30A000A101A201A3014B08A7004A08AF
:10024000A6004908A5004808A40093218031200891
:10025000303EBD002030BE005030BF006130C000D5
:10026000C1014B08031D3E29403048024230493B42
:100270000F304A3B03183E292030B7004B08031DBE
:100280004B29A03048028630493B01304A3B0318D5
:100290004B292030B8004B08031D59294A08031D7B
:1002A0005929103048022730493B0318592920307A
:1002B000B9004B08031D67294A08031D6729E83068
:1002C00048020330493B031867292030BA004B0825
:1002D000031D76294A08031D76294908031D76293E
:1002E00064304802031876292030BB004B08031DF8
:1002F00085294A08031D85294908031D85290A30D7
:100300004802031885292030BC003408A00037308B
:10031000A1000030A2003608A4003508A300A50102
:10032000A6014708082A23082204210420040319EF
:10033000C029FD01FD0AA31BA229A035A10DA20D14
:10034000A30D9A2923082702031DB029220826029B
:10035000031DB02921082502031DB029200824020D
:10036000031CBA292008A4022108A53B2208A63BA9
:100370002308A73BA336A20CA10CA00CFD0BA229BD
:100380002708A3002608A2002508A1002408A00031
:100390000800F801F901FA01FB0173087204710405
:1003A00070040319FF29FC01FC0AF31BDC29F0355A
:1003B000F10DF20DF30DD429F835F90DFA0DFB0D01
:1003C00073087702031DEE2972087602031DEE29D9
:1003D00071087502031DEE2970087402031CF929C7
:1003E0007008F4027108F53B7208F63B7308F73B9E
:1003F0007814F336F20CF10CF00CFC0BDC297B08C2
:10040000F3007A08F2007908F1007808F00008009B
:10041000B2005C085D04031908005C0884005D08F4
:1004200085000008B3005D08A8005C08A700013E35
:10043000840028080318280A85000008B100F0008D
:100440003308A700A736A736A7362708EA22803147
:10045000B00021088400220885001200031908005A
:1004600076268031B9268031AA0029082A02031C89
:10047000532AB9268031A7005D08A9005C08A800AE
:10048000033E840029080318290A85000008AA00F1
:1004900027082A02CC268031031C552A9026803159
:1004A000B9268031582ACC268031902680312030E0
:1004B000F000F1017626F002031CF1033008F2008F
:1004C000F3018F31632780317008AD077108AE3DAD
:1004D000A10A0319A20A2030F0003330F1003130B4
:1004E000F200323083258031003A031D08004001BC
:1004F0002008FA00FB013108FA070318FB0AFF3055
:10050000FA07FB3D32083307FF3EF7002008F800EA
:10051000F9013208202480314001AB0130082B0260
:100520000318B12A2D0884002E0885000008AC00AD
:10053000AF01AC1F9F2A2408FA002308A22A26082C
:10054000FA002508F900B422803140010830AC35AA
:10055000AF0A2F02031C992AAD0A0319AE0AAB0A8F
:100560008E2A3308B207292A7A08FB007908FC0092
:10057000F7007B08F62A1808F500F401F301730868
:10058000F0007408F1007508F2001708F300F40198
:10059000F5017408F5007308F400F3017308F0071F
:1005A0007408F13D7508F23D1608F0070130031894
:1005B000F1070318F2070800F000700841019F00DE
:1005C00042019117111311141118E42A41011E0858
:1005D0001D080800F200F10170087218F107F035EB
:1005E000F2367208031DEC2A71080800F8002F2566
:1005F000803177082F2DEE308400253085000230C1
:10060000FE00FF008E313A2680314C3084000030ED
:1006100085001430FE000030FF008E313A26803114
:100620007E104001132B4F2380313030F0000E300C
:10063000F100442380313530F0000E30F1004A23C0
:100640008031392380310930F0009030F1003A23B5
:1006500080314001A601A701342380311A15DC2323
:10066000803110208031312B2708A1002608A000FE
:10067000CD2D412C70087104031908007108400148
:10068000DD007008DC00080071084001E30070081C
:10069000E20008007108E1007008E0000800BF23D4
:1006A0008031C92380317C238031732380316F23D3
:1006B00080315E238031F8258031152E7C01910137
:1006C0002730920093009400950002309600083085
:1006D0009700203098008030990090000800853005
:1006E00052018C000800603051018D008F01910192
:1006F00006309300920108004001980199019A0187
:100700003F309200703093001930940069307E01C0
:10071000CE004030C3003730B800C401B901CF016A
:10072000BA01C501D001BB00F030C600FF30D100D6
:100730003F30BC00F030C700FF30D200CA12C916EB
:10074000C8165512541653160230F0000030F1004E
:10075000442380310330F0000030F1004A234E0181
:10076000161611307D01C50013307E01A100023044
:10077000A5000130A6000C307D01C60008004F0125
:1007800096019701980199019A019B019C019D0195
:10079000080011307D01C5000C30C60013307E0109
:1007A000A100403043018F00203090008D014001B6
:1007B0009410430190120800EF30F0002630F10051
:1007C0004030F200FE238031EE30F0002530F100A1
:1007D0004030F200FE23803130205B08D3005A08FD
:1007E000D2005908D1005808D0005708CF00560849
:1007F000CE005508CD005408CC000800F901A5260C
:100800008031803EF7000030763DF80077088600A2
:100810007808870072088100A52680318600760856
:100820008700720881008030F90A7902031CFF2BCF
:100830007008003E86000130713D8700810108008C
:10084000FC002A303325803100302F2580317C0890
:100850002F25803100302F25803177082F258031DA
:100860002B303325803179082F25803178082F25CA
:1008700080317B082F2580317A082F2580312C305C
:10088000332D9A1799130530F8000F30F700F13027
:10089000890B482CF70B482CF80B482C0000400122
:1008A00099170D30F8002D30F700D830890B562CF1
:1008B000F70B562CF80B562C802580311130332540
:1008C00080310330F8000830F7007730890B662C50
:1008D000F70B662CF80B662C000026303325803190
:1008E00004302F258031B1303325803110302F2551
:1008F000803108302F258031C030332580310C30D5
:100900002F25803105302F258031C13033258031AE
:1009100002302F258031C530332580314E302F25D0
:10092000803130302F258031C73033258031C030C1
:100930002F2580313A303325803105302F25803105
:100940002A303325803100302F25803100302F258B
:10095000803100302F2580317F302F2580312B30A2
:100960003325803100302F25803100302F25803114
:1009700000302F2580319F302F25803136303325B0
:100980008031C0302F258031F23033258031013065
:100990002F258031E030332580313F302F258031C5
:1009A00031302F2580312D302F2580312F302F25CC
:1009B000803128302F2580310D302F25803159305E
:1009C0002F258031A8302F25803144302F258031CC
:1009D00018302F2580311F302F25803110302F25E2
:1009E000803107302F25803102302F2580310030B3
:1009F0002F258031E1303325803100302F258031A3
:100A00000E302F25803112302F25803110302F25C8
:100A1000803117302F25803112302F25803126303C
:100A20002F25803157302F2580313B302F258031C5
:100A300007302F25803120302F2580312F302F2572
:100A4000803138302F2580313D302F2580313F30A7
:100A50002F2580312930332580312C30332DF6007D
:100A6000F4000130372DF600F4000030372DF5008A
:100A70007C019B14750C031C9B1103189B1591178B
:100A800091139B119B1000304A2580317408C325B7
:100A90008031C12DF3004301901A08007308F00063
:100AA00011306E2680319030713D850000088F0036
:100AB0007308F00010306E2680319030713D850053
:100AC0000008900091017308F00012306E2680310A
:100AD0009030713D850000088D007308F0001330E0
:100AE0006E269030713D85000008F200F20D400145
:100AF00014087206FD39720694004301901608002E
:100B000040019A130800F700F60186008130870142
:100B10000102031C902D7708860080308100761436
:100B200070088600A13087010102031C9C2D70080B
:100B30008600A0308100F614AF26803183268031F4
:100B4000031DA42D81307302031CAE2DAF2680310E
:100B5000840085010008803C81007615B426803130
:100B600083268031031DB62DA1307302031CBF2DD7
:100B7000B426840085010008A03C8100F6157608A3
:100B8000080090120800F00070088C004E010F1C45
:100B9000C62D0F1043010C0808007F30F7009F306E
:100BA000F801F901FA000030FB01202480314001F6
:100BB000A401A501A201A3012108FA002008F9005F
:100BC000B42280314001A20A0319A30A0030230293
:100BD000803003192202031CDC2DA40A0319A50A84
:100BE00000302502A0300319240203180800DA2D72
:100BF00041018C018D018E018F01920193019801B9
:100C000040309A009F0142018C018D018E018F01BD
:100C10009001920103309300940195019600970191
:100C20003F30980084309100080004307C019B0024
:100C300026309C009D0016309E009F000230A000D0
:100C40000830A1002030A2008030A3009A000800E4
:100C50007308A7007208A6007108A5007008A40018
:100C600008004B08F7004A08F6004908F500480854
:100C7000F40008007308AA007208A9007108A8000F
:100C80007008A7006430F000F101F201F3012A08B6
:100C9000F7002908F6002808F5002708F4000800E6
:100CA000DA30A7074030A83D0030A93DAA3D023008
:100CB000F301F201F1005430F0002A08F70029088E
:100CC000F6002808F5002708F4000800A101A20199
:100CD000A301F000F101F201F3010800F101F03588
:100CE000F10DF035F10D7007840008005D08A800D3
:100CF0005C08A700023E840028080318280A850023
:100D00000008A90008008400850100080107F3001D
:100D1000F401F40D7408803AF50080307502080083
:100D2000053E840028080318280A8500003FAD000E
:100D3000013FAE0008007308AA007208A9007108FC
:100D4000A8007008A7002A0808007908F300F40139
:100D50007007F5007408713DF60075080800710809
:100D600086008701770808007208860087017008EE
:100D70000800210884002208850000080800A1015D
:100D8000A201A301F301F201F1000800A101A201F7
:100D9000A301F301F20008005D08A8005C08A700A9
:100DA00008000034003400340034003400340034CF
:100DB0000034003400340034003400340034203473
:100DC00020342034203420342034003420340034C3
:100DD00000340034283450345034003400340034AB
:100DE000003400340034003400340034003428343B
:100DF0002834FC3428345034FC345034503400341B
:100E00000034003420347834A834A03460343034D2
:100E10002834A834F034203400340034003448340A
:100E2000A834B03450342834343454344834003482
:100E30000034003400342034503450347834A83432
:100E4000A83490346C3400340034003440344034DE
:100E50008034003400340034003400340034003472
:100E60000034003404340834103410341034103496
:100E70001034103408340434003400344034203446
:100E80001034103410341034103410342034403402
:100E900000340034003400342034A834703470340A
:100EA000A8342034003400340034003400342034BA
:100EB00020342034F83420342034203400340034FA
:100EC0000034003400340034003400340034003482
:100ED0000034003440344034803400340034003472
:100EE00000340034F834003400340034003400346A
:100EF0000034003400340034003400340034003452
:100F000000340034403400340034003408341034E9
:100F10001034103420342034403440344034803491
:100F20000034003400347034883488348834883491
:100F30008834883470340034003400340034203471
:100F40006034203420342034203420347034003491
:100F50000034003400347034883488341034203441
:100F600040348034F83400340034003400347034B9
:100F70008834083430340834083488347034003409
:100F80000034003400341034303450345034903451
:100F90007834103418340034003400340034F83419
:100FA00080348034F03408340834883470340034A9
:100FB000003400340034703490348034F034883499
:100FC0008834883470340034003400340034F83409
:100FD0009034103420342034203420342034003431
:100FE00000340034003470348834883470348834E9
:100FF0008834883470340034003400340034703461
:101000008834883488347834083448347034003470
:101010000034003400340034003420340034003410
:101020000034003420340034003400340034003400
:1010300000340034203400340034003420342034B0
:101040000034003404340834103420344034203464
:1010500010340834043400340034003400340034D4
:101060000034F83400340034F834003400340034F0
:10107000003400344034203410340834043408344C
:1010800010342034403400340034003400347034E0
:101090008834883410342034203400342034003430
:1010A000003400340034703488349834A834A834C0
:1010B000B8348034783400340034003400342034C0
:1010C000203430345034503478344834CC34003404
:1010D000003400340034F034483448347034483438
:1010E00048344834F0340034003400340034783468
:1010F00088348034803480348034883470340034D0
:10110000003400340034F03448344834483448342F
:1011100048344834F0340034003400340034F834B7
:10112000483450347034503440344834F834003447
:10113000003400340034F8344834503470345034BF
:1011400040344034E0340034003400340034383467
:101150004834803480349C3488344834303400340B
:10116000003400340034CC344834483478344834C3
:1011700048344834CC340034003400340034F8347B
:10118000203420342034203420342034F834003407
:101190000034003400347C341034103410341034F3
:1011A000103410349034E034003400340034EC3423
:1011B000483450346034503450344834EC340034C3
:1011C000003400340034E03440344034403440349F
:1011D00040344434FC340034003400340034D83417
:1011E000D834D834D834A834A834A834A834003437
:1011F000003400340034DC34483468346834583403
:1012000058344834E8340034003400340034703446
:10121000883488348834883488348834703400348E
:10122000003400340034F0344834483470344034EE
:1012300040344034E034003400340034003470343E
:101240008834883488348834E834983470341834D6
:10125000003400340034F0344834483470345034AE
:1012600048344834EC3400340034003400347834EA
:10127000883480346034103408348834F0340034D6
:10128000003400340034F834A834203420342034BE
:101290002034203470340034003400340034CC3432
:1012A00048344834483448344834483430340034BE
:1012B000003400340034CC34483448345034503492
:1012C0003034203420340034003400340034A83466
:1012D000A834A8347034503450345034503400346E
:1012E000003400340034D8345034503420342034A6
:1012F00050345034D8340034003400340034D834FE
:1013000050345034203420342034203470340034AD
:10131000003400340034F834903410342034203455
:1013200040344834F8340034003400343834203445
:1013300020342034203420342034203420343834F5
:1013400000340034403440344034203420341034ED
:101350001034103408340034003400347034103445
:1013600010341034103410341034103410347034FD
:10137000003400342034503400340034003400345D
:1013800000340034003400340034003400340034BD
:1013900000340034003400340034003400340034AD
:1013A000FC34003420340034003400340034003481
:1013B000003400340034003400340034003400348D
:1013C0000034003430344834383448343C34003449
:1013D000003400340034C034403440347034483475
:1013E000483448347034003400340034003400345D
:1013F0000034003438344834403440343834003415
:101400000034003400341834083408343834483494
:10141000483448343C340034003400340034003460
:1014200000340034303448347834403438340034B4
:101430000034003400341C34203420347834203418
:101440002034203478340034003400340034003444
:10145000003400343C34483430344034783444343C
:10146000383400340034C0344034403470344834AC
:1014700048344834EC340034003400340034203430
:10148000003400346034203420342034703400348C
:10149000003400340034103400340034303410345C
:1014A0001034103410341034E03400340034C034BC
:1014B000403440345C34503470344834EC340034BC
:1014C000003400340034E03420342034203420341C
:1014D00020342034F8340034003400340034003434
:1014E00000340034F034A834A834A834A8340034CC
:1014F000003400340034003400340034F034483414
:1015000048344834EC3400340034003400340034BF
:1015100000340034303448344834483430340034F3
:10152000003400340034003400340034F0344834E3
:101530004834483470344034E034003400340034EB
:1015400000340034383448344834483438340834AB
:101550001C3400340034003400340034D834603497
:1015600040344034E034003400340034003400347B
:101570000034003478344034303408347834003463
:1015800000340034003400342034203470342034EB
:101590002034203418340034003400340034003453
:1015A00000340034D8344834483448343C340034AF
:1015B000003400340034003400340034EC34483457
:1015C00050343034203400340034003400340034DB
:1015D00000340034A834A83470345034503400340B
:1015E000003400340034003400340034D834503433
:1015F00020345034D8340034003400340034003403
:1016000000340034EC344834503430342034203446
:10161000C0340034003400340034003478341034E2
:10162000203420347834003400340034183410343A
:101630001034103420341034103410341034183472
:10164000003410341034103410341034103410348A
:10165000103410341034103410340034603420341A
:1016600020342034103420342034203420346034AA
:1016700000344034A43418340034003400340034CE
:0A168000003400340034003400345C
:101C60008D1A08000130DF0008000E1A080001304C
:101C7000DE0008006400013080010131FE02003006
:101C8000FF3B7F087E04031900343B2E7E01CA1EF1
:101C90004B2E4E268E31551E08005B2E40016208E9
:101CA00063040319582E63088A0062080A008E3103
:101CB0007E01CA1208004001600861040319652E04
:101CC00061088A0060080A008E317E015512080002
:101CD000B9005708BD005608BC005508BB005408A1
:101CE000BA004C08BA024D08BB3B4E08BC3B4F083B
:101CF000D3278E31BD1B882E3D08031D862E3C0840
:101D0000031D862E01303B02031C882EF5278E31E1
:101D1000EF30F0002630FB278E31CD268E31EF30AC
:101D20004001A3002630A4003908A5003608ED279D
:101D30008E3129278E315B08BD005A08BC00590836
:101D4000BB005808BA005008BA025108BB3B520801
:101D5000BC3B5308D3278E31BD1BBA2E3D08031D53
:101D6000B82E3C08031DB82E01303B02031CBA2ECE
:101D7000F5278E31EE30F0002530FB278E31CD2651
:101D80008E31EE304001A3002530A4003908A500B3
:101D90003608413EED278E31292FF31FD12EF20157
:101DA000F3017308803AF40081307402031DDA2EC7
:101DB00000307202031CDF2EFF30F200F301CC274B
:101DC0008E3101087F3E7F39F400F50170078600EF
:101DD0007508713D87000108F600CC278E31010897
:101DE000F700F8017007F9007808713DFA007908EA
:101DF000803EFB0000307A3DFC007B0886007C08BA
:101E0000870076088100CC278E310108F400F501A7
:101E10007007F6007508713DF700760886007708B0
:101E2000870072088100CC278E31810ACC278E3141
:101E30000108F4007008003EF5000130713DF60025
:101E4000750886007608870074088100CC27811306
:101E50000800B201B30125083207B000B9278E315E
:101E6000AE002D08243DAF002E08803E86000030D5
:101E70002F3DE1278E3163278E3197278E31A101C7
:101E8000A201300878278E314001B9278E318600B3
:101E90002D08243DE1278E3163278E3197278E311F
:101EA0002908A2002808A100300878278E314001B7
:101EB000B20A0319B30A003033027F300319320229
:101EC000031808002B2FF401F501701C6B2F72080A
:101ED000F4077308F53DF235F30DF136F00C700898
:101EE0007104031D652F7508F1007408F0000800E7
:101EF000FD0080307D02031C7F2F7F30FD00A0306D
:101F00002002031C852F9F30A0007D08F7002008C9
:101F1000F800F9012008FA00FB017D088431202433
:101F200040012208FA002108F9008231B42A710820
:101F3000B5007008B4003508B400B5012708FF3EAD
:101F4000AA00FF3003180030AB0035082B02031D38
:101F5000AB2F34082A020318B42F2708B400FF302F
:101F6000B501B407031CB50326083407B100A0006F
:101F700008002308003E86000130243D8700010848
:101F80003207AA0033080318330AAB007F302A0552
:101F9000AC00AD01230708007008003E8600013048
:101FA000713D87000800BD3B4030BA070030BB3DA3
:101FB000BC3DBD3DBD1F0800BA01BB01BC01BD0158
:101FC000080087000109B400B5012708F000F101FD
:101FD0003508F3003408F2000800A6004130A700DD
:101FE0003808A9003708A8000800FF30BA00BB0174
:101FF000BC01BD010800F1003A08F200F30108003D
:1020000050347234653473347334753472346534D7
:10201000003408340C3420347E340034D134863417
:08202000203440340034003488
:020000040001F9
:0A000E00EC3FFF3F9F3FFF3FFF3F25
:00000001FF
