:020000040000FA
:1000000080311428FF34FF347E1480314E01161ED7
:100010000A280B2812280C1E0E280F2812289731A8
:10002000582780317E100900803116288031022047
:100030008031EE00803103208031EF00EE3084000B
:10004000253085000230FE000230FF00883100209C
:100050008031FC0159308400003085001530FE00ED
:100060000030FF008831002080317E10400188314F
:100070007428003400340034003400340034003478
:1000800000340034003400340034003400342034B0
:100090002034203420342034203400342034003400
:1000A00000340034283450345034003400340034E8
:1000B0000034003400340034003400340034283478
:1000C0002834FC3428345034FC3450345034003458
:1000D0000034003420347834A834A0346034303410
:1000E0002834A834F0342034003400340034483448
:1000F000A834B034503428343434543448340034C0
:100100000034003400342034503450347834A8346F
:10011000A83490346C34003400340034403440341B
:1001200080340034003400340034003400340034AF
:1001300000340034043408341034103410341034D3
:100140001034103408340434003400344034203483
:10015000103410341034103410341034203440343F
:1001600000340034003400342034A8347034703447
:10017000A8342034003400340034003400342034F7
:1001800020342034F8342034203420340034003437
:1001900000340034003400340034003400340034BF
:1001A00000340034403440348034003400340034AF
:1001B00000340034F83400340034003400340034A7
:1001C000003400340034003400340034003400348F
:1001D0000034003440340034003400340834103427
:1001E00010341034203420344034403440348034CF
:1001F00000340034003470348834883488348834CF
:1002000088348834703400340034003400342034AE
:1002100060342034203420342034203470340034CE
:10022000003400340034703488348834103420347E
:1002300040348034F83400340034003400347034F6
:100240008834083430340834083488347034003446
:10025000003400340034103430345034503490348E
:100260007834103418340034003400340034F83456
:1002700080348034F03408340834883470340034E6
:10028000003400340034703490348034F0348834D6
:100290008834883470340034003400340034F83446
:1002A000903410342034203420342034203400346E
:1002B0000034003400347034883488347034883426
:1002C000883488347034003400340034003470349E
:1002D00088348834883478340834483470340034AE
:1002E000003400340034003400342034003400344E
:1002F000003400342034003400340034003400343E
:1003000000340034203400340034003420342034ED
:1003100000340034043408341034203440342034A1
:100320001034083404340034003400340034003411
:100330000034F83400340034F8340034003400342D
:100340000034003440342034103408340434083489
:10035000103420344034003400340034003470341D
:10036000883488341034203420340034203400346D
:10037000003400340034703488349834A834A834FD
:10038000B8348034783400340034003400342034FD
:10039000203430345034503478344834CC34003441
:1003A000003400340034F034483448347034483475
:1003B00048344834F03400340034003400347834A5
:1003C000883480348034803480348834703400340D
:1003D000003400340034F03448344834483448346D
:1003E00048344834F0340034003400340034F834F5
:1003F000483450347034503440344834F834003485
:10040000003400340034F8344834503470345034FC
:1004100040344034E03400340034003400343834A4
:100420004834803480349C34883448343034003448
:10043000003400340034CC34483448347834483400
:1004400048344834CC340034003400340034F834B8
:10045000203420342034203420342034F834003444
:100460000034003400347C34103410341034103430
:10047000103410349034E034003400340034EC3460
:10048000483450346034503450344834EC34003400
:10049000003400340034E0344034403440344034DC
:1004A00040344434FC340034003400340034D83454
:1004B000D834D834D834A834A834A834A834003474
:1004C000003400340034DC34483468346834583440
:1004D00058344834E8340034003400340034703484
:1004E00088348834883488348834883470340034CC
:1004F000003400340034F03448344834703440342C
:1005000040344034E034003400340034003470347B
:100510008834883488348834E83498347034183413
:10052000003400340034F0344834483470345034EB
:1005300048344834EC340034003400340034783427
:10054000883480346034103408348834F034003413
:10055000003400340034F834A834203420342034FB
:100560002034203470340034003400340034CC346F
:1005700048344834483448344834483430340034FB
:10058000003400340034CC344834483450345034CF
:100590003034203420340034003400340034A834A3
:1005A000A834A834703450345034503450340034AB
:1005B000003400340034D8345034503420342034E3
:1005C00050345034D8340034003400340034D8343B
:1005D00050345034203420342034203470340034EB
:1005E000003400340034F834903410342034203493
:1005F00040344834F8340034003400343834203483
:100600002034203420342034203420342034383432
:10061000003400344034403440342034203410342A
:100620001034103408340034003400347034103482
:10063000103410341034103410341034103470343A
:10064000003400342034503400340034003400349A
:1006500000340034003400340034003400340034FA
:1006600000340034003400340034003400340034EA
:10067000FC340034203400340034003400340034BE
:1006800000340034003400340034003400340034CA
:100690000034003430344834383448343C34003486
:1006A000003400340034C0344034403470344834B2
:1006B000483448347034003400340034003400349A
:1006C0000034003438344834403440343834003452
:1006D00000340034003418340834083438344834D2
:1006E000483448343C34003400340034003400349E
:1006F00000340034303448347834403438340034F2
:100700000034003400341C34203420347834203455
:100710002034203478340034003400340034003481
:10072000003400343C344834303440347834443479
:10073000383400340034C0344034403470344834E9
:1007400048344834EC34003400340034003420346D
:1007500000340034603420342034203470340034C9
:100760000034003400341034003400343034103499
:100770001034103410341034E03400340034C034F9
:10078000403440345C34503470344834EC340034F9
:10079000003400340034E034203420342034203459
:1007A00020342034F8340034003400340034003471
:1007B00000340034F034A834A834A834A834003409
:1007C000003400340034003400340034F034483451
:1007D00048344834EC3400340034003400340034FD
:1007E0000034003430344834483448343034003431
:1007F000003400340034003400340034F034483421
:100800004834483470344034E03400340034003428
:1008100000340034383448344834483438340834E8
:100820001C3400340034003400340034D8346034D4
:1008300040344034E03400340034003400340034B8
:1008400000340034783440343034083478340034A0
:100850000034003400340034203420347034203428
:100860002034203418340034003400340034003490
:1008700000340034D8344834483448343C340034EC
:10088000003400340034003400340034EC34483494
:100890005034303420340034003400340034003418
:1008A00000340034A834A834703450345034003448
:1008B000003400340034003400340034D834503470
:1008C00020345034D8340034003400340034003440
:1008D00000340034EC344834503430342034203484
:1008E000C034003400340034003400347834103420
:1008F0002034203478340034003400341834103478
:1009000010341034203410341034103410341834AF
:1009100000341034103410341034103410341034C7
:100920001034103410341034103400346034203457
:1009300020342034103420342034203420346034E7
:1009400000344034A434183400340034003400340B
:10095000003400340034003400344001C300640823
:10096000D7006308D6006208D5006108D4000030C3
:10097000A8000030A7000030A6000A30A500003013
:10098000F4000F30F3004230F2004030F10057081D
:10099000F8005608F7005508F6005408F5008A31AB
:1009A000B522843174084001AC007308AB007208B2
:1009B000AA007108A9008A311D228431400125084E
:1009C000303EC2004208C4000030A8000030A7003A
:1009D0000030A6000A30A5000030F4000130F3001A
:1009E0008630F200A030F1005708F8005608F700F2
:1009F0005508F6005408F5008A31B5228431740890
:100A00004001AC007308AB007208AA007108A9008D
:100A10008A311D22843140012508303EC20042083F
:100A2000C5000030A8000030A7000030A6000A3042
:100A3000A5000030F4000030F3002730F200103041
:100A4000F1005708F8005608F7005508F60054085A
:100A5000F5008A31B522843174084001AC00730876
:100A6000AB007208AA007108A9008A311D228431E6
:100A700040012508303EC2004208C6000030A800F0
:100A80000030A7000030A6000A30A5000030F400B6
:100A90000030F3000330F200E830F1005708F800AE
:100AA0005608F7005508F6005408F5008A31B522BB
:100AB000843174084001AC007308AB007208AA00CE
:100AC0007108A9008A311D22843140012508303E79
:100AD000C2004208C7000030A8000030A700003064
:100AE000A6000A30A5000030F4000030F30000300A
:100AF000F2006430F1005708F8005608F700550876
:100B0000F6005408F5008A31B5228431740840019A
:100B1000AC007308AB007208AA007108A9008A3102
:100B20001D22843140012508303EC2004208C80021
:100B30000030A8000030A7000030A6000A30A50051
:100B40000030F4000030F3000030F2000A30F10011
:100B50005708F8005608F7005508F6005408F50045
:100B60008A31B522843174084001AC007308AB00AF
:100B70007208AA007108A9008A311D22843140013F
:100B80002508303EC2004208C9000030A8000030ED
:100B9000A7000030A6000A30A5005708AC00560890
:100BA000AB005508AA005408A9008A311D228431DF
:100BB00040012508303EC2004208CA002030C20071
:100BC0004208CB005030C2004208CC006130C20065
:100BD0004208CD00CE015708031DF72D40305402C6
:100BE0004230553B0F30563B0318F72DF82DFC2DA6
:100BF0002030C2004208C4005708031D082EA03050
:100C000054028630553B0130563B0318082E092EFE
:100C10000D2E2030C2004208C5005708031D1A2EB1
:100C20005608031D1A2E103054022730553B031866
:100C30001A2E1B2E1F2E2030C2004208C600570855
:100C4000031D2C2E5608031D2C2EE83054020330B1
:100C5000553B03182C2E2D2E312E2030C200420879
:100C6000C7005708031D3F2E5608031D3F2E550889
:100C7000031D3F2E6430540203183F2E402E442E95
:100C80002030C2004208C8005708031D522E5608E3
:100C9000031D522E5508031D522E0A30540203180C
:100CA000522E532E572E2030C2004208C9003F0852
:100CB000C2004208A5004430A6000030A700410849
:100CC000A9004008A8000030AA00AB004308863104
:100CD0006B26843108004001BD006B086C04031DC5
:100CE000722E732E742EC22F6B0884006C08850040
:100CF0000008AC002C08BE006C08AD006B08AC000E
:100D000001302C0784002D0803182D0A85000008E7
:100D1000AE002E08BC003C08AC002C08FA003E08CF
:100D2000AD00AE012D08F3002E08F4000830F100EC
:100D30000030F2008B311023863171089731B927CA
:100D400086314001AF002F08BB00B92F6C08AD0001
:100D50006B08AC0002302C0784002D0803182D0A04
:100D600085000008AE0026088400270885000008DA
:100D7000AF002E082F02031CBE2EBF2E102F2608F8
:100D80008400270885000008AC006C08AE006B08E2
:100D9000AD0003302D0784002E0803182E0A8500AD
:100DA0000008AF002C082F02031CD72ED82E102FBE
:100DB00026088400270885000008AC006C08AE00F7
:100DC0006B08AD0002302D0784002E0803182E0A90
:100DD000850000082C02F100F201031CF2033B081D
:100DE000AF00B0012F08F3003008F40088312A204A
:100DF000863140016C08B2006B08B1000530310744
:100E0000840032080318320A8500003FB300013F16
:100E1000B40071083307B8007208343DB900452F9B
:100E20006C08AD006B08AC0002302C0784002D0864
:100E300003182D0A85000008AE002030AF002E08F0
:100E40002F02F100F201031CF2033B08B000B101D4
:100E50003008F3003108F40088312A20863140013F
:100E60006C08B3006B08B200053032078400330809
:100E70000318330A8500003FB400013FB500710834
:100E80003407B8007208353DB9000130A6070030BC
:100E9000A73D2530AC002C08F1003E30AD002D08F8
:100EA000F2003C30AE002E08F3003D308B316F2352
:100EB0008631003A031D5D2F5E2FC22F40013D0891
:100EC0003E07FF3EAC002C08A0002508AD00AE0197
:100ED0002D08A1002E08A20025083C07AF00B00194
:100EE000B00D2F08FF3EA300FF30303DA4003D08A9
:100EF0008931012186314001B601AF2F38088400C5
:100F0000390885000008AC002C08B700BA01B71FEB
:100F10008A2F8B2F932F2908A1002808A000973132
:100F2000692786319A2F2B08A1002A08A000973143
:100F30006927863103104001B70D0130AC002C0841
:100F4000BA0708303A02031CA62FA72F872F0130BB
:100F5000B8070030B93D0130AC002C08B6073B089B
:100F60003602031CB42FB52F7E2F3E08AC002C0890
:100F7000BD0726088400270885001200031DC12F25
:100F8000C22FA62E08007F304001A7002708A0002E
:100F90000030A100A2009F30A3000030A400003068
:100FA0008931012187314001AA01AB01A801A901C2
:100FB0002608A1002508A000973169278731013054
:100FC0004001A8070030A93D0030290280300319F4
:100FD0002802031CEC2FED2FD82F0130AA07003078
:100FE000AB3D00302B02A03003192A02031CF92F5D
:100FF000FA2FD62F0800853052018C000800080017
:101000006400800101310130FE020030FF3B7F08A7
:101010007E04031D0128003441018C018D018E01E5
:101020008F0192019301980140309A009F01420183
:101030008C018D018E018F0190019201033093008C
:10104000940195010330960097013F309800843059
:1010500091000800F501F601711C2F283028342872
:101060007308F5077408F63D0130F335F40D890B6C
:1010700035280130F236F10C890B3A2871087204D8
:10108000031D432844282C287608F2007508F10037
:101090000800EF30F1002630F2004030FB007B0802
:1010A000F30089319F218831EE30F1002530F200C4
:1010B0004030FB007B08F30089319F2188318C315F
:1010C0005924883140016808E0006708DF0066089D
:1010D000DE006508DD006408DC006308DB006208F0
:1010E000DA006108D90008009731E7278831D53048
:1010F000F1001630F2009631B7268831DF30F1006A
:101100001630F2009631BD2688319631B3268831EB
:101110000930F1009830F200973111278831003002
:101120004001AC00AD009631C326883140011A154C
:101130008831492088318831A12088319B2880312D
:1011400014288C31592488314001A5010030A600B3
:101150009830A7000030A800FF30A9000030AA0096
:10116000AB00003086316B2688310F304001D8004B
:101170005808BF000030C000FF30C1000F3084317C
:10118000AD2488311E304001D8005808C30000301B
:10119000C400FF30C50000308D311C2588310800A7
:1011A000410116084001A000A101A2014101170858
:1011B0004001A300A401A5010830A335A40DA50D8D
:1011C000890BDD28410118084001A600A701A801EC
:1011D0001030A635A70DA80D890BE9282608A3070E
:1011E0002708A43D2808A53D2308A0072408A13D01
:1011F0002508A23D2008F1002108F2002208F30092
:101200000800F9002A309631E926893100309631FC
:10121000F326893179089631F326893100309631E9
:10122000F3268931400120089631F32689312B308D
:101230009631E9268931400122089631F326893119
:10124000400121089631F326893140012408963166
:10125000F3268931400123089631F32689312C3059
:101260009631E926893108004001AD0080302D0219
:10127000031C3B293C2940297F30A8002808AD00E9
:10128000A0302502031C452946294A299F30A80081
:101290002808A5002D08A8002808A0002508A900F6
:1012A000AA012908A1002A08A2002508AB00AC0168
:1012B0002B08A3002C08A4002D08893101218931B5
:1012C00040012708A1002608A0009731692789312D
:1012D000080000304001A3000030A2000030A1004F
:1012E0000030A000711C752976297F2975084001FE
:1012F000A0077608A13D7708A23D7808A33D0130FC
:10130000F535F60DF70DF80D890B80290130F4360F
:10131000F30CF20CF10C890B872974087304720426
:101320007104031D94299529722940012308F400B2
:101330002208F3002108F2002008F1000800FA0159
:101340007A08F400F50174087107F6007508723D1B
:10135000F7007608803EF8000030773DF900780805
:10136000860079088700730881007A08F400F50187
:1013700074087107F6007508723DF700760886005C
:1013800077088700730881000130F4007408FA07B9
:1013900080307A02031CCD29CE29A0297108003E95
:1013A00086000130723D87008101080040019801EC
:1013B00099019A013F3092007030930019309400E7
:1013C00069307E01CE004030C3003730B800C40120
:1013D000B901CF01BA01C501D0013730BB00F030EF
:1013E000C600FF30D1003F30BC00F030C700FF30F6
:1013F000D200CA12C916C816551254165316AC306C
:10140000F1001630F2009631B7268931FF30F10035
:101410000730F2009631BD2689314E011616113083
:101420007D01C50013307E01A1000230A50001300E
:10143000A6000C307D01C6000800400128082704E2
:10144000260425040319252A262A5F2AFB01FB0A04
:10145000342A0130A535A60DA70DA80D890B2A2A1F
:101460000130FA007A08FB07A81F372A382A292AF0
:1014700028082C02031D462A27082B02031D462A92
:1014800026082A02031D462A25082902031C492A88
:101490004A2A522A2508A9022608AA3B2708AB3B5C
:1014A0002808AC3B0130A836A70CA60CA50C890B6C
:1014B000532A0130FB02031D5E2A5F2A382A2C08BA
:1014C000A8002B08A7002A08A6002908A5000800E4
:1014D000F4004301901A6D2A6E2AB42A7408F100B0
:1014E000F201F135F20DF135F20D11307107840082
:1014F0009830723D850000088F007408F100F201F9
:10150000F135F20DF135F20D10307107840098308D
:10151000723D85000008900091017408F100F2010D
:10152000F135F20DF135F20D12307107840098306B
:10153000723D850000088D007408F100F201F1355C
:10154000F20DF135F20D1330710784009830723DC1
:1015500085000008F300F30D400114087306FD39FF
:101560007306940043019016080000304001A30068
:101570000030A2000030A1000030A0007408730405
:10158000720471040319C52AC62A072BA401A40AF0
:10159000D42A0130F135F20DF30DF40D890BCA2A6E
:1015A0000130F9007908A407F41FD72AD82AC92ADC
:1015B0000130A035A10DA20DA30D890BD92A740805
:1015C0007802031DED2A73087702031DED2A7208C5
:1015D0007602031DED2A71087502031CF02AF12A18
:1015E000FA2A7108F5027208F63B7308F73B740893
:1015F000F83B20140130F436F30CF20CF10C890B9B
:10160000FB2A0130A402031D062B072BD82A23082E
:10161000F4002208F3002108F2002008F10008007D
:10162000F701F21F142B152B1C2BF109F209F10AFB
:101630000319F20AF701F70AF41F1F2B202B292B9D
:10164000F309F409F30A0319F40A0130F5007508E7
:10165000F706F801F901710872040319302B312BD8
:10166000602BF601F60A3D2B0130F135F20D890BA6
:10167000352B0130F5007508F607F21F402B412B82
:10168000342B0130F835F90D890B422B72087402A6
:10169000031D4C2B71087302031C4F2B502B552B31
:1016A0007108F3027208F43B78140130F236F10C41
:1016B000890B562B0130F602031D5F2B602B412B4B
:1016C00077080319642B652B6A2BF809F909F80AC6
:1016D0000319F90A7908F2007808F1000800F80007
:1016E000F70178088600870181300102031C792BFD
:1016F0007A2B822B8030F4007808860087017408EA
:1017000081007714710886008701A1300102031C53
:101710008A2B8B2B932BA030F40071088600870155
:1017200074088100F7147208860087017808840025
:10173000850100080107F400F501F50D7508803AF0
:10174000F60080307602031DA72B81307402031C43
:10175000AA2BAB2BB72B7808860087010108803CA9
:10176000F4007208860087017408810077157308F9
:101770008600870171088400850100080107F400D4
:10178000F501F50D7508803AF60080307602031DEC
:10179000CB2BA1307402031CCE2BCF2BDB2B71087B
:1017A000860087010108A03CF400730886008701C9
:1017B00074088100F71577080800F41FE02BE12B6F
:1017C000E32BF301F4017408803A4001A00081305A
:1017D0002002031DED2B00307302031CF02BF12BB4
:1017E000F52BFF30F3000030F4007108003E860056
:1017F0000130723D870001087F3E7F394001A00023
:10180000A1012008710786002108723D87000108A8
:10181000A2007108003E86000130723D8700010879
:10182000A300A40123087107A5002408723DA600A7
:101830002508803EA7000030263DA8002708860026
:1018400028088700220881007108003E86000130C8
:10185000723D87000108A000A10120087107A200C5
:101860002108723DA3002208860023088700730820
:1018700081000130A0007108003E86000130723DF9
:101880008700200881077108003E86000130723D04
:10189000870001087F39A0007108003EA1000130D7
:1018A000723DA200210886002208870020088100DE
:1018B00008000330420196000430973148278C31EC
:1018C0008831D0208C3171084001A9007208AA002B
:1018D0007308AB000630AB36AA0CA90C890B6B2C35
:1018E0002908AC002A08AD002B08AE00AF012F0874
:1018F000B3002E08B2002D08B1002C08B000DA3079
:10190000B0074030B13D0030B23D0030B33D003053
:10191000F4000030F3000230F2005430F1003308DC
:10192000F8003208F7003108F6003008F500893178
:1019300069218C3174084001B3007308B200720849
:10194000B1007108B0000030F4000030F300003046
:10195000F2006430F1003308F8003208F700310873
:10196000F6003008F5008A31B5228C317408400148
:10197000B3007308B2007208B1007108B0003308F8
:10198000E4003208E3003108E2003008E100FC30F6
:101990002C05B000FF302D05B100FF302E05B20040
:1019A000FF302F05B300DA30B0074030B13D0030D2
:1019B000B23D0030B33D0030F4000030F30002309F
:1019C000F2005430F1003308F8003208F700310813
:1019D000F6003008F500893169218C317408400126
:1019E000B3007308B2007208B1007108B000003093
:1019F000F4000030F3000030F2006430F1003308EE
:101A0000F8003208F7003108F6003008F5008A3196
:101A1000B5228C3174084001B3007308B20072081B
:101A2000B1007108B0003308E8003208E70031085F
:101A3000E6003008E50008004001CA0059086102CC
:101A4000C6005A08623BC7005B08633BC8005C08DD
:101A5000643BC90040304607CB000030473DCC0016
:101A60000030483DCD000030493DCE00CE1F392D1D
:101A70003A2D422D0030CE000030CD000030CC0099
:101A80000030CB00CE1B4F2D4E08031D502D4D08AE
:101A9000031D502D01304C02031C4F2D502D582D8D
:101AA0000030CE000030CD000030CC00FF30CB0045
:101AB000EF30F1002630F2004B08C600C70146089F
:101AC000F3004708F4008B31DD238D31EF30400106
:101AD000AE002630AF004A08C6004608B0004308F2
:101AE000C7004708B1004130C8004808B2004508A7
:101AF000B4004408B3008D31E1258D3140015D080B
:101B00006502C6005E08663BC7005F08673BC80009
:101B10006008683BC90040304607CB000030473DB5
:101B2000CC000030483DCD000030493DCE00CE1FF6
:101B30009A2D9B2DA32D0030CE000030CD0000301B
:101B4000CC000030CB00CE1BB02D4E08031DB12DB4
:101B50004D08031DB12D01304C02031CB02DB12DD9
:101B6000B92D0030CE000030CD000030CC00FF3069
:101B7000CB00EE30F1002530F2004B08C600C70163
:101B80004608F3004708F4008B31DD238D31EE3039
:101B90004001AE002530AF004A08C6004608B0003C
:101BA0004308413EC7004708B1004130C80048081B
:101BB000B2004508B4004408B3008D31E1258D31F1
:101BC00008004001BF01C00130083F07B5003508DB
:101BD000BD002E08003E860001302F3D8700010821
:101BE0003F07B50040080318400AB6007F303505AE
:101BF000B70000303605B80037082E07B90038089E
:101C00002F3DBA003908803E860000303A3D8700FB
:101C10000109BB00BC013B08C1003C08C2003208FE
:101C2000B500B6013508F1003608F2004208F400AC
:101C30004108F30088312A208D3172084001C2002A
:101C40007108C1004208B6004108B5003608B50069
:101C5000B6013508C1003608C2003208FF3EB500A3
:101C6000FF3003180030B60042083602031D3A2E3A
:101C70004108350203183D2E3E2E452E3208FF3E08
:101C8000C100FF3003180030C20031084107B50021
:101C90003508BE003E08B5003508A5000030A60096
:101CA000A7003D08893134218D3140012E08003EC6
:101CB000860001302F3D870001083F07B50040082E
:101CC0000318400AB6007F303505B70000303605EE
:101CD000B80037082E07860038082F3D8700010915
:101CE000B900BA013908C1003A08C2003208B5008B
:101CF000B6013508F1003608F2004208F400410848
:101D0000F30088312A208D3172084001C200710829
:101D1000C1004208B6004108B5003608B500B6015A
:101D20003508C1003608C2003208FF3EB500FF305A
:101D300003180030B60042083602031DA12E4108E8
:101D400035020318A42EA52EAC2E3208FF3EC1008A
:101D5000FF3003180030C20031084107B5003508D4
:101D6000BE003E08B5003508A5003408A7003308BA
:101D7000A6003D08893134218D3101304001BF0773
:101D80000030C03D003040027F3003193F02031C89
:101D9000CA2ECB2EE42D080040019A179913053066
:101DA000FA000F30F900F130890BD42EF90BD42E44
:101DB000FA0BD42E0000400199170D30FA002D3097
:101DC000F900D830890BE22EF90BE22EFA0BE22E45
:101DD0009631B0268E3111309631E9268E3103309E
:101DE000FA000830F9007730890BF42EF90BF42E45
:101DF000FA0BF42E000026309631E9268E3104309D
:101E00009631F3268E31B1309631E9268E3110307D
:101E10009631F3268E3108309631F3268E31C0305C
:101E20009631E9268E310C309631F3268E3105300D
:101E30009631F3268E31C1309631E9268E3102304B
:101E40009631F3268E31C5309631E9268E314E30EB
:101E50009631F3268E3130309631F3268E31C730ED
:101E60009631E9268E31C0309631F3268E313A30E4
:101E70009631E9268E3105309631F3268E312A309F
:101E80009631E9268E3100309631F3268E310030BE
:101E90009631F3268E3100309631F3268E317F3025
:101EA0009631F3268E312B309631E9268E31003073
:101EB0009631F3268E3100309631F3268E31003084
:101EC0009631F3268E319F309631F3268E3136309F
:101ED0009631E9268E31C0309631F3268E31F230BC
:101EE0009631E9268E3101309631F3268E31E0307D
:101EF0009631E9268E313F309631F3268E313130DE
:101F00009631F3268E312D309631F3268E312F30D7
:101F10009631F3268E3128309631F3268E310D30EE
:101F20009631F3268E3159309631F3268E31A83012
:101F30009631F3268E3144309631F3268E311830A7
:101F40009631F3268E311F309631F3268E311030C4
:101F50009631F3268E3107309631F3268E310230DA
:101F60009631F3268E3100309631F3268E31E130F2
:101F70009631E9268E3100309631F3268E310E30BF
:101F80009631F3268E3112309631F3268E31103091
:101F90009631F3268E3117309631F3268E3112307A
:101FA0009631F3268E3126309631F3268E31573016
:101FB0009631F3268E313B309631F3268E31073041
:101FC0009631F3268E3120309631F3268E312F3024
:101FD0009631F3268E3138309631F3268E313D30EE
:101FE0009631F3268E313F309631F3268E312930EB
:101FF0009631E9268E312C309631E9268E31080053
:102D5800080043019012080040019A1308008E31C0
:102D6800CC269631080072084101A3007108A20020
:102D7800080072084101A1007108A0000800400184
:102D88002D08A6002C08A5008731C3279631080016
:102D9800603051018D008F0191010630930092013E
:102DA800080040018D1AD92EDA2EDE2E0130F000EF
:102DB8007008FC00080040010E1AE32EE42EE82EED
:102DC8000130F0007008ED000800F8007808F700FE
:102DD8007708F50000309731CF2796310800F800C2
:102DE8007808F7007708F50001309731CF2796313A
:102DF8000800FA007A089631F32696317908963158
:102E0800F326963108004F01960197019801990120
:102E18009A019B019C019D01080071087204031925
:102E2800162F172F1C2F72084001EC007108EB00B9
:102E38000800F100710843018C004E010F1C252F7A
:102E4800262F212F0F1043010C08080041012208EA
:102E580023040319302F312F362F23088A00220824
:102E68000A0097317E01CA12080041012008210496
:102E780003193F2F402F452F21088A0020080A00F8
:102E880097317E0155120800F100710841019F0039
:102E980042019117111311141118532F542F502F49
:102EA80041011E081D0808007E01CA1E5C2F5D2F07
:102EB800602F97312A2797317E01551E642F652F81
:102EC800682F973139279731080040012108FB0006
:102ED8007B08A2002008FB007B08A3002308FB0056
:102EE8007B08F90022089631FD2697310800113039
:102EF8007D01C5000C30C60013307E01A1004030B2
:102F080043018F00203090008D014001941043014F
:102F1800901208007C01910127309200273093001D
:102F2800273094002730950002309600083097002B
:102F380020309800803099008030900008000430DC
:102F48007C019B0026309C0026309D0016309E0098
:102F580016309F000230A0000830A1002030A200E7
:102F68008030A30080309A0008004001A100A00131
:102F7800211CBF2FC02FC42F7A08FB007B08A00795
:102F88000310FA0D0310A10C2108031DCC2FCD2F1F
:102F9800BC2F20080800F6007C019B14760C031C4B
:102FA8009B1103189B15911791139B119B100030CF
:102FB8008A3168229731750897311D2797319631E4
:102FC800AD269731080097310727973197317B272E
:102FD80097318931D62197319631CC26973187316F
:102FE800FB27973197318E27973188310C209731FD
:102FF8009731A327973108005034723465347334FD
:103008007334753472346534003408340C34203425
:103018007E34003439348034203440340034003471
:020000040001F9
:0A000E00EC3FFF3F9F3FFF3FFF3F25
:00000001FF
